{
  "contractName": "Licenses",
  "abi": [
    {
      "inputs": [
        {
          "internalType": "bool",
          "name": "correctiveLensesRestriction",
          "type": "bool"
        },
        {
          "internalType": "bool",
          "name": "realId",
          "type": "bool"
        }
      ],
      "name": "newLicense",
      "outputs": [],
      "stateMutability": "payable",
      "type": "function",
      "payable": true
    },
    {
      "inputs": [
        {
          "internalType": "bool",
          "name": "correctiveLensesRestriction",
          "type": "bool"
        },
        {
          "internalType": "bool",
          "name": "realId",
          "type": "bool"
        }
      ],
      "name": "renewLicense",
      "outputs": [],
      "stateMutability": "payable",
      "type": "function",
      "payable": true
    },
    {
      "inputs": [
        {
          "internalType": "bytes",
          "name": "newStreetAddress",
          "type": "bytes"
        }
      ],
      "name": "updateAddress",
      "outputs": [],
      "stateMutability": "payable",
      "type": "function",
      "payable": true
    },
    {
      "inputs": [],
      "name": "getLicense",
      "outputs": [
        {
          "components": [
            {
              "internalType": "uint256",
              "name": "expirationDate",
              "type": "uint256"
            },
            {
              "internalType": "bool",
              "name": "correctiveLensesRestriction",
              "type": "bool"
            },
            {
              "internalType": "bool",
              "name": "realId",
              "type": "bool"
            }
          ],
          "internalType": "struct Licenses.License",
          "name": "",
          "type": "tuple"
        }
      ],
      "stateMutability": "view",
      "type": "function",
      "constant": true
    },
    {
      "inputs": [
        {
          "internalType": "uint8",
          "name": "recordType",
          "type": "uint8"
        },
        {
          "internalType": "address",
          "name": "forCitizen",
          "type": "address"
        }
      ],
      "name": "getVitalRecord",
      "outputs": [
        {
          "components": [
            {
              "internalType": "enum Licenses.CertificateType",
              "name": "certificateType",
              "type": "uint8"
            },
            {
              "internalType": "bool",
              "name": "isValue",
              "type": "bool"
            },
            {
              "internalType": "uint128",
              "name": "date",
              "type": "uint128"
            }
          ],
          "internalType": "struct Licenses.VitalRecord",
          "name": "",
          "type": "tuple"
        }
      ],
      "stateMutability": "view",
      "type": "function",
      "constant": true
    },
    {
      "inputs": [
        {
          "internalType": "bytes",
          "name": "firstName",
          "type": "bytes"
        },
        {
          "internalType": "bytes",
          "name": "lastName",
          "type": "bytes"
        },
        {
          "internalType": "bytes",
          "name": "streetAddress",
          "type": "bytes"
        },
        {
          "internalType": "address",
          "name": "forCitizen",
          "type": "address"
        }
      ],
      "name": "addProfile",
      "outputs": [],
      "stateMutability": "payable",
      "type": "function",
      "payable": true
    },
    {
      "inputs": [
        {
          "internalType": "uint8",
          "name": "recordType",
          "type": "uint8"
        },
        {
          "internalType": "uint128",
          "name": "date",
          "type": "uint128"
        },
        {
          "internalType": "address",
          "name": "forCitizen",
          "type": "address"
        }
      ],
      "name": "saveVitalRecord",
      "outputs": [],
      "stateMutability": "payable",
      "type": "function",
      "payable": true
    }
  ],
  "bytecode": "0x608060405234801561001057600080fd5b50611515806100206000396000f3fe6080604052600436106100705760003560e01c806341e517d61161004e57806341e517d6146100c957806350cb34b8146100e557806352af9c4b14610101578063c5e4dd821461013e57610070565b806324373d95146100755780632f54ced51461009157806340129a40146100ad575b600080fd5b61008f600480360381019061008a91906111c2565b610169565b005b6100ab60048036038101906100a6919061109a565b610552565b005b6100c760048036038101906100c2919061105e565b6105ab565b005b6100e360048036038101906100de919061105e565b610718565b005b6100ff60048036038101906100fa91906110db565b6108e3565b005b34801561010d57600080fd5b5061012860048036038101906101239190611186565b610bab565b604051610135919061134c565b60405180910390f35b34801561014a57600080fd5b50610153610dca565b6040516101609190611331565b60405180910390f35b6000808273ffffffffffffffffffffffffffffffffffffffff1673ffffffffffffffffffffffffffffffffffffffff16815260200190815260200160002060000160009054906101000a900460ff166101c157600080fd5b600060018111156101ce57fe5b8360ff1660018111156101dd57fe5b60018111156101e857fe5b1415610389576000808273ffffffffffffffffffffffffffffffffffffffff1673ffffffffffffffffffffffffffffffffffffffff16815260200190815260200160002060060160000160019054906101000a900460ff161561024a57600080fd5b610252610e63565b600181602001901515908115158152505060008160000190600181111561027557fe5b9081600181111561028257fe5b815250508281604001906fffffffffffffffffffffffffffffffff1690816fffffffffffffffffffffffffffffffff1681525050806000808473ffffffffffffffffffffffffffffffffffffffff1673ffffffffffffffffffffffffffffffffffffffff16815260200190815260200160002060060160008201518160000160006101000a81548160ff0219169083600181111561031c57fe5b021790555060208201518160000160016101000a81548160ff02191690831515021790555060408201518160000160026101000a8154816fffffffffffffffffffffffffffffffff02191690836fffffffffffffffffffffffffffffffff1602179055509050505061054d565b60018081111561039557fe5b8360ff1660018111156103a457fe5b60018111156103af57fe5b141561054c576000808273ffffffffffffffffffffffffffffffffffffffff1673ffffffffffffffffffffffffffffffffffffffff16815260200190815260200160002060070160000160019054906101000a900460ff161561041157600080fd5b610419610e63565b600181602001901515908115158152505060018160000190600181111561043c57fe5b9081600181111561044957fe5b815250508281604001906fffffffffffffffffffffffffffffffff1690816fffffffffffffffffffffffffffffffff1681525050806000808473ffffffffffffffffffffffffffffffffffffffff1673ffffffffffffffffffffffffffffffffffffffff16815260200190815260200160002060070160008201518160000160006101000a81548160ff021916908360018111156104e357fe5b021790555060208201518160000160016101000a81548160ff02191690831515021790555060408201518160000160026101000a8154816fffffffffffffffffffffffffffffffff02191690836fffffffffffffffffffffffffffffffff160217905550905050505b5b505050565b806000803373ffffffffffffffffffffffffffffffffffffffff1673ffffffffffffffffffffffffffffffffffffffff16815260200190815260200160002060030190805190602001906105a7929190610ea3565b5050565b66354a6ba7a1800034146105be57600080fd5b6000803373ffffffffffffffffffffffffffffffffffffffff1673ffffffffffffffffffffffffffffffffffffffff16815260200190815260200160002060000160009054906101000a900460ff1661064c576040517f08c379a000000000000000000000000000000000000000000000000000000000815260040161064390611311565b60405180910390fd5b610654610f23565b6312cc030042018160000181815250508281602001901515908115158152505081816040019015159081151581525050806000803373ffffffffffffffffffffffffffffffffffffffff1673ffffffffffffffffffffffffffffffffffffffff1681526020019081526020016000206004016000820151816000015560208201518160010160006101000a81548160ff02191690831515021790555060408201518160010160016101000a81548160ff021916908315150217905550905050505050565b80156107365766470de4df820000341461073157600080fd5b61074a565b66354a6ba7a18000341461074957600080fd5b5b6000803373ffffffffffffffffffffffffffffffffffffffff1673ffffffffffffffffffffffffffffffffffffffff16815260200190815260200160002060000160009054906101000a900460ff166107d8576040517f08c379a00000000000000000000000000000000000000000000000000000000081526004016107cf90611311565b60405180910390fd5b6312cc030042016000803373ffffffffffffffffffffffffffffffffffffffff1673ffffffffffffffffffffffffffffffffffffffff16815260200190815260200160002060040160000181905550806000803373ffffffffffffffffffffffffffffffffffffffff1673ffffffffffffffffffffffffffffffffffffffff16815260200190815260200160002060040160010160016101000a81548160ff021916908315150217905550816000803373ffffffffffffffffffffffffffffffffffffffff1673ffffffffffffffffffffffffffffffffffffffff16815260200190815260200160002060040160010160006101000a81548160ff0219169083151502179055505050565b6000808273ffffffffffffffffffffffffffffffffffffffff1673ffffffffffffffffffffffffffffffffffffffff16815260200190815260200160002060000160009054906101000a900460ff161561093c57600080fd5b610944610f48565b6001816000019015159081151581525050848160200181905250838160400181905250828160600181905250806000808473ffffffffffffffffffffffffffffffffffffffff1673ffffffffffffffffffffffffffffffffffffffff16815260200190815260200160002060008201518160000160006101000a81548160ff02191690831515021790555060208201518160010190805190602001906109eb929190610ea3565b506040820151816002019080519060200190610a08929190610ea3565b506060820151816003019080519060200190610a25929190610ea3565b506080820151816004016000820151816000015560208201518160010160006101000a81548160ff02191690831515021790555060408201518160010160016101000a81548160ff021916908315150217905550505060a08201518160060160008201518160000160006101000a81548160ff02191690836001811115610aa857fe5b021790555060208201518160000160016101000a81548160ff02191690831515021790555060408201518160000160026101000a8154816fffffffffffffffffffffffffffffffff02191690836fffffffffffffffffffffffffffffffff160217905550505060c08201518160070160008201518160000160006101000a81548160ff02191690836001811115610b3b57fe5b021790555060208201518160000160016101000a81548160ff02191690831515021790555060408201518160000160026101000a8154816fffffffffffffffffffffffffffffffff02191690836fffffffffffffffffffffffffffffffff16021790555050509050505050505050565b610bb3610e63565b600180811115610bbf57fe5b60ff168360ff161115610bd157600080fd5b60006001811115610bde57fe5b8360ff166001811115610bed57fe5b6001811115610bf857fe5b1415610ce3576000808373ffffffffffffffffffffffffffffffffffffffff1673ffffffffffffffffffffffffffffffffffffffff1681526020019081526020016000206006016040518060600160405290816000820160009054906101000a900460ff166001811115610c6857fe5b6001811115610c7357fe5b81526020016000820160019054906101000a900460ff161515151581526020016000820160029054906101000a90046fffffffffffffffffffffffffffffffff166fffffffffffffffffffffffffffffffff166fffffffffffffffffffffffffffffffff16815250509050610dc4565b6000808373ffffffffffffffffffffffffffffffffffffffff1673ffffffffffffffffffffffffffffffffffffffff1681526020019081526020016000206007016040518060600160405290816000820160009054906101000a900460ff166001811115610d4d57fe5b6001811115610d5857fe5b81526020016000820160019054906101000a900460ff161515151581526020016000820160029054906101000a90046fffffffffffffffffffffffffffffffff166fffffffffffffffffffffffffffffffff166fffffffffffffffffffffffffffffffff168152505090505b92915050565b610dd2610f23565b6000803373ffffffffffffffffffffffffffffffffffffffff1673ffffffffffffffffffffffffffffffffffffffff168152602001908152602001600020600401604051806060016040529081600082015481526020016001820160009054906101000a900460ff161515151581526020016001820160019054906101000a900460ff161515151581525050905090565b604051806060016040528060006001811115610e7b57fe5b815260200160001515815260200160006fffffffffffffffffffffffffffffffff1681525090565b828054600181600116156101000203166002900490600052602060002090601f016020900481019282601f10610ee457805160ff1916838001178555610f12565b82800160010185558215610f12579182015b82811115610f11578251825591602001919060010190610ef6565b5b509050610f1f9190610f99565b5090565b6040518060600160405280600081526020016000151581526020016000151581525090565b6040518060e00160405280600015158152602001606081526020016060815260200160608152602001610f79610f23565b8152602001610f86610e63565b8152602001610f93610e63565b81525090565b5b80821115610fb2576000816000905550600101610f9a565b5090565b600081359050610fc581611483565b92915050565b600081359050610fda8161149a565b92915050565b600082601f830112610ff157600080fd5b8135611004610fff82611394565b611367565b9150808252602083016020830185838301111561102057600080fd5b61102b838284611467565b50505092915050565b600081359050611043816114b1565b92915050565b600081359050611058816114c8565b92915050565b6000806040838503121561107157600080fd5b600061107f85828601610fcb565b925050602061109085828601610fcb565b9150509250929050565b6000602082840312156110ac57600080fd5b600082013567ffffffffffffffff8111156110c657600080fd5b6110d284828501610fe0565b91505092915050565b600080600080608085870312156110f157600080fd5b600085013567ffffffffffffffff81111561110b57600080fd5b61111787828801610fe0565b945050602085013567ffffffffffffffff81111561113457600080fd5b61114087828801610fe0565b935050604085013567ffffffffffffffff81111561115d57600080fd5b61116987828801610fe0565b925050606061117a87828801610fb6565b91505092959194509250565b6000806040838503121561119957600080fd5b60006111a785828601611049565b92505060206111b885828601610fb6565b9150509250929050565b6000806000606084860312156111d757600080fd5b60006111e586828701611049565b93505060206111f686828701611034565b925050604061120786828701610fb6565b9150509250925092565b61121a816113e3565b82525050565b61122981611455565b82525050565b600061123c6016836113c0565b91507f6e6f2070726f66696c6520666f722061646472657373000000000000000000006000830152602082019050919050565b6060820160008201516112856000850182611302565b5060208201516112986020850182611211565b5060408201516112ab6040850182611211565b50505050565b6060820160008201516112c76000850182611220565b5060208201516112da6020850182611211565b5060408201516112ed60408501826112f3565b50505050565b6112fc81611402565b82525050565b61130b8161143e565b82525050565b6000602082019050818103600083015261132a8161122f565b9050919050565b6000606082019050611346600083018461126f565b92915050565b600060608201905061136160008301846112b1565b92915050565b6000604051905081810181811067ffffffffffffffff8211171561138a57600080fd5b8060405250919050565b600067ffffffffffffffff8211156113ab57600080fd5b601f19601f8301169050602081019050919050565b600082825260208201905092915050565b60006113dc8261141e565b9050919050565b60008115159050919050565b60008190506113fd82611476565b919050565b60006fffffffffffffffffffffffffffffffff82169050919050565b600073ffffffffffffffffffffffffffffffffffffffff82169050919050565b6000819050919050565b600060ff82169050919050565b6000611460826113ef565b9050919050565b82818337600083830152505050565b6002811061148057fe5b50565b61148c816113d1565b811461149757600080fd5b50565b6114a3816113e3565b81146114ae57600080fd5b50565b6114ba81611402565b81146114c557600080fd5b50565b6114d181611448565b81146114dc57600080fd5b5056fea26469706673582212209478e7fb1014c074e0f3af0d78b25e895b7c107185b844adc16d8b8212e594c864736f6c634300060c0033",
  "immutableReferences": {},
  "source": "// SPDX-License-Identifier: MIT\npragma solidity >=0.6.0 <8.10.0;\npragma experimental ABIEncoderV2;\n\ncontract Licenses {\n    struct License {\n        uint expirationDate;\n        bool correctiveLensesRestriction;\n        bool realId;\n    }\n\n    enum CertificateType {BIRTH, MARRIAGE}\n\n    struct VitalRecord {\n        CertificateType certificateType;\n        bool isValue;\n        uint128 date;\n    }\n\n    struct Profile {\n        bool isValue;\n        bytes firstName;\n        bytes lastName;\n        bytes streetAddress;\n        License license;\n        VitalRecord birthCertificate;\n        VitalRecord marriageCertificate;\n    }\n\n    mapping(address => Profile) profiles;\n\n    function newLicense(bool correctiveLensesRestriction, bool realId) public payable {\n        require(msg.value == 0.015 ether);\n        require(profiles[msg.sender].isValue, \"no profile for address\");\n\n        License memory l;\n\n        l.expirationDate = block.timestamp + (10 * 365 days);\n        l.correctiveLensesRestriction = correctiveLensesRestriction;\n        l.realId = realId;\n\n        profiles[msg.sender].license = l;\n    }\n\n    function renewLicense(bool correctiveLensesRestriction, bool realId) public payable {\n        if (realId)\n            require(msg.value == 0.02 ether);\n        else \n            require(msg.value == 0.015 ether);\n\n        require(profiles[msg.sender].isValue, \"no profile for address\");\n\n        profiles[msg.sender].license.expirationDate = block.timestamp + (10 * 365 days);\n        profiles[msg.sender].license.realId = realId;\n        profiles[msg.sender].license.correctiveLensesRestriction = correctiveLensesRestriction;\n    }\n\n    function updateAddress(bytes memory newStreetAddress) public payable {\n        profiles[msg.sender].streetAddress = newStreetAddress;\n    }\n\n    function getLicense() public view returns (License memory) {\n        return profiles[msg.sender].license;\n    }\n\n    function getVitalRecord(uint8 recordType, address forCitizen) public view returns (VitalRecord memory) {\n        require(recordType <= uint8(CertificateType.MARRIAGE));\n        if (CertificateType(recordType) == CertificateType.BIRTH) {\n            return profiles[forCitizen].birthCertificate;\n        }\n        else {\n            return profiles[forCitizen].marriageCertificate;\n        }\n    }\n\n    function addProfile(\n        bytes memory firstName,\n        bytes memory lastName,\n        bytes memory streetAddress,\n        address forCitizen\n    ) public payable {\n        require(!profiles[forCitizen].isValue);\n\n        Profile memory p;\n\n        p.isValue = true;\n        p.firstName = firstName;\n        p.lastName = lastName;\n        p.streetAddress = streetAddress;\n        profiles[forCitizen] = p;\n    }\n\n    function saveVitalRecord(\n        uint8 recordType,\n        uint128 date,\n        address forCitizen\n    ) public payable {\n        require(profiles[forCitizen].isValue);\n        if (CertificateType(recordType) == CertificateType.BIRTH) {\n            require(!profiles[forCitizen].birthCertificate.isValue);\n            VitalRecord memory vr;\n\n            vr.isValue = true;\n            vr.certificateType = CertificateType.BIRTH;\n            vr.date = date;\n            profiles[forCitizen].birthCertificate = vr;\n        }\n        else if (CertificateType(recordType) == CertificateType.MARRIAGE) {\n            require(!profiles[forCitizen].marriageCertificate.isValue);\n            VitalRecord memory vr;\n\n            vr.isValue = true;\n            vr.certificateType = CertificateType.MARRIAGE;\n            vr.date = date;\n            profiles[forCitizen].marriageCertificate = vr;\n        }\n    }\n}",
  "sourcePath": "/Users/seangalloway/Coding_Projects/College/9Spring_2022/764CS/project/dmv-backend/contracts/Licenses.sol",
  "compiler": {
    "name": "solc",
    "version": "0.6.12+commit.27d51765.Emscripten.clang"
  },
  "schemaVersion": "3.4.6",
  "updatedAt": "2022-04-25T03:15:02.709Z",
  "networkType": "ethereum",
  "devdoc": {
    "kind": "dev",
    "methods": {},
    "version": 1
  },
  "userdoc": {
    "kind": "user",
    "methods": {},
    "version": 1
  }
}