{
  "contractName": "Registrations",
  "abi": [
    {
      "inputs": [
        {
          "internalType": "bytes",
          "name": "vin",
          "type": "bytes"
        }
      ],
      "name": "registerVehicle",
      "outputs": [],
      "stateMutability": "payable",
      "type": "function",
      "payable": true
    },
    {
      "inputs": [
        {
          "internalType": "bytes",
          "name": "vin",
          "type": "bytes"
        }
      ],
      "name": "getRegistrations",
      "outputs": [
        {
          "components": [
            {
              "internalType": "uint256",
              "name": "expirationDate",
              "type": "uint256"
            },
            {
              "internalType": "address",
              "name": "owner",
              "type": "address"
            }
          ],
          "internalType": "struct Registrations.Registration",
          "name": "",
          "type": "tuple"
        }
      ],
      "stateMutability": "payable",
      "type": "function",
      "payable": true
    },
    {
      "inputs": [
        {
          "internalType": "bytes",
          "name": "vin",
          "type": "bytes"
        }
      ],
      "name": "cancelRegistration",
      "outputs": [],
      "stateMutability": "payable",
      "type": "function",
      "payable": true
    }
  ],
  "bytecode": "0x608060405234801561001057600080fd5b50610574806100206000396000f3fe6080604052600436106100345760003560e01c8063256fe235146100395780632f6a1dd11461005557806388174ab414610071575b600080fd5b610053600480360381019061004e9190610360565b6100a1565b005b61006f600480360381019061006a9190610360565b61017b565b005b61008b60048036038101906100869190610360565b610244565b6040516100989190610436565b60405180910390f35b6658d15e1762800034146100b457600080fd5b6100bc6102dc565b33816020019073ffffffffffffffffffffffffffffffffffffffff16908173ffffffffffffffffffffffffffffffffffffffff16815250506301e13380420181600001818152505080600083604051610115919061041f565b90815260200160405180910390206000820151816000015560208201518160010160006101000a81548173ffffffffffffffffffffffffffffffffffffffff021916908373ffffffffffffffffffffffffffffffffffffffff1602179055509050505050565b3373ffffffffffffffffffffffffffffffffffffffff166000826040516101a2919061041f565b908152602001604051809103902060010160009054906101000a900473ffffffffffffffffffffffffffffffffffffffff1673ffffffffffffffffffffffffffffffffffffffff16141561024157600081604051610200919061041f565b90815260200160405180910390206000808201600090556001820160006101000a81549073ffffffffffffffffffffffffffffffffffffffff021916905550505b50565b61024c6102dc565b60008260405161025c919061041f565b9081526020016040518091039020604051806040016040529081600082015481526020016001820160009054906101000a900473ffffffffffffffffffffffffffffffffffffffff1673ffffffffffffffffffffffffffffffffffffffff1673ffffffffffffffffffffffffffffffffffffffff16815250509050919050565b604051806040016040528060008152602001600073ffffffffffffffffffffffffffffffffffffffff1681525090565b600082601f83011261031d57600080fd5b813561033061032b8261047e565b610451565b9150808252602083016020830185838301111561034c57600080fd5b6103578382846104fc565b50505092915050565b60006020828403121561037257600080fd5b600082013567ffffffffffffffff81111561038c57600080fd5b6103988482850161030c565b91505092915050565b6103aa816104c0565b82525050565b60006103bb826104aa565b6103c581856104b5565b93506103d581856020860161050b565b80840191505092915050565b6040820160008201516103f76000850182610410565b50602082015161040a60208501826103a1565b50505050565b610419816104f2565b82525050565b600061042b82846103b0565b915081905092915050565b600060408201905061044b60008301846103e1565b92915050565b6000604051905081810181811067ffffffffffffffff8211171561047457600080fd5b8060405250919050565b600067ffffffffffffffff82111561049557600080fd5b601f19601f8301169050602081019050919050565b600081519050919050565b600081905092915050565b60006104cb826104d2565b9050919050565b600073ffffffffffffffffffffffffffffffffffffffff82169050919050565b6000819050919050565b82818337600083830152505050565b60005b8381101561052957808201518184015260208101905061050e565b83811115610538576000848401525b5050505056fea2646970667358221220f2c03b05f36816154b85d84acd25f9dcb7483a18f4804f0837b981240fcb89e464736f6c634300060c0033",
  "immutableReferences": {},
  "source": "// SPDX-License-Identifier: MIT\npragma solidity >=0.6.0 <8.10.0;\n\npragma experimental ABIEncoderV2;\n\ncontract Registrations {\n    struct Registration {\n        uint expirationDate;\n        address owner;\n    }\n\n    mapping(bytes => Registration) registrations;\n\n    function registerVehicle(bytes memory vin) public payable {\n        require(msg.value == 0.025 ether);\n\n        Registration memory r;\n        \n        r.owner = msg.sender;\n        r.expirationDate = block.timestamp + (365 days);\n        registrations[vin] = r;\n    }\n\n    function getRegistrations(bytes memory vin) public payable returns (Registration memory) {\n        return registrations[vin];\n    }\n\n    function cancelRegistration(bytes memory vin) public payable {\n        if (registrations[vin].owner == msg.sender) {\n            delete registrations[vin];\n        }\n    }\n}",
  "sourcePath": "/Users/seangalloway/Coding_Projects/College/9Spring_2022/764CS/project/dmv-backend/contracts/Registrations.sol",
  "compiler": {
    "name": "solc",
    "version": "0.6.12+commit.27d51765.Emscripten.clang"
  },
  "schemaVersion": "3.4.6",
  "updatedAt": "2022-04-24T03:10:10.743Z",
  "networkType": "ethereum",
  "devdoc": {
    "kind": "dev",
    "methods": {},
    "version": 1
  },
  "userdoc": {
    "kind": "user",
    "methods": {},
    "version": 1
  }
}