{
  "contractName": "VehicleServices",
  "abi": [
    {
      "inputs": [
        {
          "internalType": "uint256",
          "name": "year",
          "type": "uint256"
        },
        {
          "internalType": "string",
          "name": "make",
          "type": "string"
        },
        {
          "internalType": "string",
          "name": "model",
          "type": "string"
        },
        {
          "internalType": "string",
          "name": "color",
          "type": "string"
        },
        {
          "internalType": "bytes",
          "name": "vin",
          "type": "bytes"
        }
      ],
      "name": "title",
      "outputs": [],
      "stateMutability": "payable",
      "type": "function",
      "payable": true
    },
    {
      "inputs": [],
      "name": "getVehicles",
      "outputs": [
        {
          "components": [
            {
              "internalType": "uint256",
              "name": "year",
              "type": "uint256"
            },
            {
              "internalType": "string",
              "name": "make",
              "type": "string"
            },
            {
              "internalType": "string",
              "name": "model",
              "type": "string"
            },
            {
              "internalType": "string",
              "name": "color",
              "type": "string"
            },
            {
              "internalType": "address payable",
              "name": "owner",
              "type": "address"
            }
          ],
          "internalType": "struct VehicleServices.Title[]",
          "name": "",
          "type": "tuple[]"
        }
      ],
      "stateMutability": "view",
      "type": "function",
      "constant": true
    },
    {
      "inputs": [
        {
          "internalType": "bytes",
          "name": "vin",
          "type": "bytes"
        }
      ],
      "name": "revokeTitle",
      "outputs": [],
      "stateMutability": "payable",
      "type": "function",
      "payable": true
    },
    {
      "inputs": [
        {
          "internalType": "bytes",
          "name": "vin",
          "type": "bytes"
        },
        {
          "internalType": "address payable",
          "name": "buyer",
          "type": "address"
        }
      ],
      "name": "sellVehicle",
      "outputs": [],
      "stateMutability": "payable",
      "type": "function",
      "payable": true
    }
  ],
  "bytecode": "0x608060405234801561001057600080fd5b50611465806100206000396000f3fe60806040526004361061003f5760003560e01c806312df15201461004457806337513707146100605780638e5862561461007c578063e6b7e20714610098575b600080fd5b61005e60048036038101906100599190610fdd565b6100c3565b005b61007a60048036038101906100759190610f89565b610286565b005b61009660048036038101906100919190610f48565b6105fb565b005b3480156100a457600080fd5b506100ad610896565b6040516100ba9190611260565b60405180910390f35b66354a6ba7a1800034146100d657600080fd5b6100de610ccc565b8281606001819052508481602001819052508381604001819052508581600001818152505033816080019073ffffffffffffffffffffffffffffffffffffffff16908173ffffffffffffffffffffffffffffffffffffffff1681525050600160003373ffffffffffffffffffffffffffffffffffffffff1673ffffffffffffffffffffffffffffffffffffffff168152602001908152602001600020829080600181540180825580915050600190039060005260206000200160009091909190915090805190602001906101b3929190610d11565b50806000836040516101c59190611249565b90815260200160405180910390206000820151816000015560208201518160010190805190602001906101f9929190610d91565b506040820151816002019080519060200190610216929190610d91565b506060820151816003019080519060200190610233929190610d91565b5060808201518160040160006101000a81548173ffffffffffffffffffffffffffffffffffffffff021916908373ffffffffffffffffffffffffffffffffffffffff160217905550905050505050505050565b3373ffffffffffffffffffffffffffffffffffffffff166000836040516102ad9190611249565b908152602001604051809103902060040160009054906101000a900473ffffffffffffffffffffffffffffffffffffffff1673ffffffffffffffffffffffffffffffffffffffff16146102ff57600080fd5b666a94d74f430000341461031257600080fd5b6000826040516103229190611249565b90815260200160405180910390206000808201600090556001820160006103499190610e11565b6002820160006103599190610e11565b6003820160006103699190610e11565b6004820160006101000a81549073ffffffffffffffffffffffffffffffffffffffff021916905550506060600160003373ffffffffffffffffffffffffffffffffffffffff1673ffffffffffffffffffffffffffffffffffffffff168152602001908152602001600020805480602002602001604051908101604052809291908181526020016000905b828210156104af578382906000526020600020018054600181600116156101000203166002900480601f01602080910402602001604051908101604052809291908181526020018280546001816001161561010002031660029004801561049b5780601f106104705761010080835404028352916020019161049b565b820191906000526020600020905b81548152906001019060200180831161047e57829003601f168201915b5050505050815260200190600101906103f3565b50505050905060005b81518161ffff16101561051c578380519060200120828261ffff16815181106104dd57fe5b602002602001015180519060200120141561050f57818161ffff168151811061050257fe5b6020026020010160608152505b80806001019150506104b8565b508160008460405161052e9190611249565b908152602001604051809103902060040160006101000a81548173ffffffffffffffffffffffffffffffffffffffff021916908373ffffffffffffffffffffffffffffffffffffffff160217905550600160008373ffffffffffffffffffffffffffffffffffffffff1673ffffffffffffffffffffffffffffffffffffffff168152602001908152602001600020839080600181540180825580915050600190039060005260206000200160009091909190915090805190602001906105f5929190610d11565b50505050565b3373ffffffffffffffffffffffffffffffffffffffff166000826040516106229190611249565b908152602001604051809103902060040160009054906101000a900473ffffffffffffffffffffffffffffffffffffffff1673ffffffffffffffffffffffffffffffffffffffff161461067457600080fd5b66354a6ba7a18000341461068757600080fd5b6000816040516106979190611249565b90815260200160405180910390206000808201600090556001820160006106be9190610e11565b6002820160006106ce9190610e11565b6003820160006106de9190610e11565b6004820160006101000a81549073ffffffffffffffffffffffffffffffffffffffff021916905550506060600160003373ffffffffffffffffffffffffffffffffffffffff1673ffffffffffffffffffffffffffffffffffffffff168152602001908152602001600020805480602002602001604051908101604052809291908181526020016000905b82821015610824578382906000526020600020018054600181600116156101000203166002900480601f0160208091040260200160405190810160405280929190818152602001828054600181600116156101000203166002900480156108105780601f106107e557610100808354040283529160200191610810565b820191906000526020600020905b8154815290600101906020018083116107f357829003601f168201915b505050505081526020019060010190610768565b50505050905060005b81518161ffff161015610891578280519060200120828261ffff168151811061085257fe5b602002602001015180519060200120141561088457818161ffff168151811061087757fe5b6020026020010160608152505b808060010191505061082d565b505050565b606080600160003373ffffffffffffffffffffffffffffffffffffffff1673ffffffffffffffffffffffffffffffffffffffff168152602001908152602001600020805480602002602001604051908101604052809291908181526020016000905b828210156109b4578382906000526020600020018054600181600116156101000203166002900480601f0160208091040260200160405190810160405280929190818152602001828054600181600116156101000203166002900480156109a05780601f10610975576101008083540402835291602001916109a0565b820191906000526020600020905b81548152906001019060200180831161098357829003601f168201915b5050505050815260200190600101906108f8565b5050505090506060815167ffffffffffffffff811180156109d457600080fd5b50604051908082528060200260200182016040528015610a0e57816020015b6109fb610ccc565b8152602001906001900390816109f35790505b50905060005b8251811015610cc3576000838281518110610a2b57fe5b6020026020010151604051610a409190611249565b90815260200160405180910390206040518060a001604052908160008201548152602001600182018054600181600116156101000203166002900480601f016020809104026020016040519081016040528092919081815260200182805460018160011615610100020316600290048015610afc5780601f10610ad157610100808354040283529160200191610afc565b820191906000526020600020905b815481529060010190602001808311610adf57829003601f168201915b50505050508152602001600282018054600181600116156101000203166002900480601f016020809104026020016040519081016040528092919081815260200182805460018160011615610100020316600290048015610b9e5780601f10610b7357610100808354040283529160200191610b9e565b820191906000526020600020905b815481529060010190602001808311610b8157829003601f168201915b50505050508152602001600382018054600181600116156101000203166002900480601f016020809104026020016040519081016040528092919081815260200182805460018160011615610100020316600290048015610c405780601f10610c1557610100808354040283529160200191610c40565b820191906000526020600020905b815481529060010190602001808311610c2357829003601f168201915b505050505081526020016004820160009054906101000a900473ffffffffffffffffffffffffffffffffffffffff1673ffffffffffffffffffffffffffffffffffffffff1673ffffffffffffffffffffffffffffffffffffffff1681525050828281518110610cab57fe5b60200260200101819052508080600101915050610a14565b50809250505090565b6040518060a0016040528060008152602001606081526020016060815260200160608152602001600073ffffffffffffffffffffffffffffffffffffffff1681525090565b828054600181600116156101000203166002900490600052602060002090601f016020900481019282601f10610d5257805160ff1916838001178555610d80565b82800160010185558215610d80579182015b82811115610d7f578251825591602001919060010190610d64565b5b509050610d8d9190610e59565b5090565b828054600181600116156101000203166002900490600052602060002090601f016020900481019282601f10610dd257805160ff1916838001178555610e00565b82800160010185558215610e00579182015b82811115610dff578251825591602001919060010190610de4565b5b509050610e0d9190610e59565b5090565b50805460018160011615610100020316600290046000825580601f10610e375750610e56565b601f016020900490600052602060002090810190610e559190610e59565b5b50565b5b80821115610e72576000816000905550600101610e5a565b5090565b600081359050610e8581611401565b92915050565b600082601f830112610e9c57600080fd5b8135610eaf610eaa826112af565b611282565b91508082526020830160208301858383011115610ecb57600080fd5b610ed68382846113ae565b50505092915050565b600082601f830112610ef057600080fd5b8135610f03610efe826112db565b611282565b91508082526020830160208301858383011115610f1f57600080fd5b610f2a8382846113ae565b50505092915050565b600081359050610f4281611418565b92915050565b600060208284031215610f5a57600080fd5b600082013567ffffffffffffffff811115610f7457600080fd5b610f8084828501610e8b565b91505092915050565b60008060408385031215610f9c57600080fd5b600083013567ffffffffffffffff811115610fb657600080fd5b610fc285828601610e8b565b9250506020610fd385828601610e76565b9150509250929050565b600080600080600060a08688031215610ff557600080fd5b600061100388828901610f33565b955050602086013567ffffffffffffffff81111561102057600080fd5b61102c88828901610edf565b945050604086013567ffffffffffffffff81111561104957600080fd5b61105588828901610edf565b935050606086013567ffffffffffffffff81111561107257600080fd5b61107e88828901610edf565b925050608086013567ffffffffffffffff81111561109b57600080fd5b6110a788828901610e8b565b9150509295509295909350565b60006110c083836111b6565b905092915050565b6110d181611372565b82525050565b60006110e282611317565b6110ec8185611345565b9350836020820285016110fe85611307565b8060005b8581101561113a578484038952815161111b85826110b4565b945061112683611338565b925060208a01995050600181019050611102565b50829750879550505050505092915050565b600061115782611322565b6111618185611356565b93506111718185602086016113bd565b80840191505092915050565b60006111888261132d565b6111928185611361565b93506111a28185602086016113bd565b6111ab816113f0565b840191505092915050565b600060a0830160008301516111ce600086018261123a565b50602083015184820360208601526111e6828261117d565b91505060408301518482036040860152611200828261117d565b9150506060830151848203606086015261121a828261117d565b915050608083015161122f60808601826110c8565b508091505092915050565b611243816113a4565b82525050565b6000611255828461114c565b915081905092915050565b6000602082019050818103600083015261127a81846110d7565b905092915050565b6000604051905081810181811067ffffffffffffffff821117156112a557600080fd5b8060405250919050565b600067ffffffffffffffff8211156112c657600080fd5b601f19601f8301169050602081019050919050565b600067ffffffffffffffff8211156112f257600080fd5b601f19601f8301169050602081019050919050565b6000819050602082019050919050565b600081519050919050565b600081519050919050565b600081519050919050565b6000602082019050919050565b600082825260208201905092915050565b600081905092915050565b600082825260208201905092915050565b600061137d82611384565b9050919050565b600073ffffffffffffffffffffffffffffffffffffffff82169050919050565b6000819050919050565b82818337600083830152505050565b60005b838110156113db5780820151818401526020810190506113c0565b838111156113ea576000848401525b50505050565b6000601f19601f8301169050919050565b61140a81611372565b811461141557600080fd5b50565b611421816113a4565b811461142c57600080fd5b5056fea2646970667358221220a07ecf21832f3b5eb6935459fab384e047c670547a84be0c00812bd80b413eed64736f6c634300060c0033",
  "immutableReferences": {},
  "source": "// SPDX-License-Identifier: MIT\npragma solidity >=0.6.0 <8.10.0;\npragma experimental ABIEncoderV2;\n\ncontract VehicleServices {\n    struct Title {\n        uint year;\n        string make;\n        string model;\n        string color;\n        address payable owner;\n    }\n\n    mapping(bytes => Title) titles;\n    mapping(address => bytes[]) findVinsByOwner;\n\n\n    function title(\n        uint year,\n        string memory make,\n        string memory model,\n        string memory color,\n        bytes memory vin\n    ) public payable {\n        require(msg.value == 0.015 ether);\n        Title memory t;\n        t.color = color;\n        t.make = make;\n        t.model = model;\n        t.year = year;\n        t.owner = payable(msg.sender);\n\n        findVinsByOwner[msg.sender].push(vin);\n        titles[vin] = t;\n    }\n\n    function getVehicles() public view returns (Title[] memory) {\n        bytes[] memory userVins = findVinsByOwner[msg.sender];\n        Title[] memory userTitles = new Title[](userVins.length);\n\n        for (uint256 index = 0; index < userVins.length; index++) {\n            userTitles[index] = titles[userVins[index]];\n        }\n\n        return userTitles;\n    }\n\n\n\n    function revokeTitle(bytes memory vin) public payable {\n        require(titles[vin].owner == msg.sender);\n        require(msg.value == 0.015 ether);\n\n        delete titles[vin];\n\n        bytes[] memory currentOwnerVins = findVinsByOwner[msg.sender];\n\n        for (uint16 i = 0; i < currentOwnerVins.length; i++) {\n            if (keccak256(currentOwnerVins[i]) == keccak256(vin)) {\n                delete currentOwnerVins[i];\n            }\n        }\n    }\n\n    function sellVehicle(bytes memory vin, address payable buyer) external payable {\n        require(titles[vin].owner == msg.sender);\n        require(msg.value == 0.03 ether);\n        \n        delete titles[vin];\n\n        bytes[] memory currentOwnerVins = findVinsByOwner[msg.sender];\n\n        for (uint16 i = 0; i < currentOwnerVins.length; i++) {\n            if (keccak256(currentOwnerVins[i]) == keccak256(vin)) {\n                delete currentOwnerVins[i];\n            }\n        }\n\n        titles[vin].owner = buyer;\n        findVinsByOwner[buyer].push(vin);\n    }\n\n    \n}",
  "sourcePath": "/Users/seangalloway/Coding_Projects/College/9Spring_2022/764CS/project/dmv-backend/contracts/VehicleServices.sol",
  "compiler": {
    "name": "solc",
    "version": "0.6.12+commit.27d51765.Emscripten.clang"
  },
  "schemaVersion": "3.4.6",
  "updatedAt": "2022-04-24T03:10:10.747Z",
  "networkType": "ethereum",
  "devdoc": {
    "kind": "dev",
    "methods": {},
    "version": 1
  },
  "userdoc": {
    "kind": "user",
    "methods": {},
    "version": 1
  }
}