{
  "contractName": "VehicleServices",
  "abi": [
    {
      "inputs": [
        {
          "internalType": "uint256",
          "name": "year",
          "type": "uint256"
        },
        {
          "internalType": "string",
          "name": "make",
          "type": "string"
        },
        {
          "internalType": "string",
          "name": "model",
          "type": "string"
        },
        {
          "internalType": "string",
          "name": "color",
          "type": "string"
        },
        {
          "internalType": "bytes",
          "name": "vin",
          "type": "bytes"
        }
      ],
      "name": "title",
      "outputs": [],
      "stateMutability": "payable",
      "type": "function",
      "payable": true
    },
    {
      "inputs": [],
      "name": "getVehicles",
      "outputs": [
        {
          "components": [
            {
              "internalType": "bool",
              "name": "isValue",
              "type": "bool"
            },
            {
              "internalType": "uint256",
              "name": "year",
              "type": "uint256"
            },
            {
              "internalType": "string",
              "name": "make",
              "type": "string"
            },
            {
              "internalType": "string",
              "name": "model",
              "type": "string"
            },
            {
              "internalType": "string",
              "name": "color",
              "type": "string"
            },
            {
              "internalType": "address payable",
              "name": "owner",
              "type": "address"
            }
          ],
          "internalType": "struct VehicleServices.Title[]",
          "name": "",
          "type": "tuple[]"
        }
      ],
      "stateMutability": "view",
      "type": "function",
      "constant": true
    },
    {
      "inputs": [
        {
          "internalType": "bytes",
          "name": "vin",
          "type": "bytes"
        }
      ],
      "name": "revokeTitle",
      "outputs": [],
      "stateMutability": "payable",
      "type": "function",
      "payable": true
    },
    {
      "inputs": [
        {
          "internalType": "bytes",
          "name": "vin",
          "type": "bytes"
        },
        {
          "internalType": "address payable",
          "name": "buyer",
          "type": "address"
        }
      ],
      "name": "sellVehicle",
      "outputs": [],
      "stateMutability": "payable",
      "type": "function",
      "payable": true
    }
  ],
  "bytecode": "0x608060405234801561001057600080fd5b50611543806100206000396000f3fe60806040526004361061003f5760003560e01c806312df15201461004457806337513707146100605780638e5862561461007c578063e6b7e20714610098575b600080fd5b61005e6004803603810190610059919061108d565b6100c3565b005b61007a60048036038101906100759190611039565b6102b7565b005b61009660048036038101906100919190610ff8565b6105ac565b005b3480156100a457600080fd5b506100ad61085b565b6040516100ba9190611332565b60405180910390f35b66354a6ba7a1800034146100d657600080fd5b6100de610d73565b600181600001901515908115158152505082816080018190525084816040018190525083816060018190525085816020018181525050338160a0019073ffffffffffffffffffffffffffffffffffffffff16908173ffffffffffffffffffffffffffffffffffffffff1681525050600160003373ffffffffffffffffffffffffffffffffffffffff1673ffffffffffffffffffffffffffffffffffffffff168152602001908152602001600020829080600181540180825580915050600190039060005260206000200160009091909190915090805190602001906101c4929190610dc1565b50806000836040516101d6919061131b565b908152602001604051809103902060008201518160000160006101000a81548160ff02191690831515021790555060208201518160010155604082015181600201908051906020019061022a929190610e41565b506060820151816003019080519060200190610247929190610e41565b506080820151816004019080519060200190610264929190610e41565b5060a08201518160050160006101000a81548173ffffffffffffffffffffffffffffffffffffffff021916908373ffffffffffffffffffffffffffffffffffffffff160217905550905050505050505050565b3373ffffffffffffffffffffffffffffffffffffffff166000836040516102de919061131b565b908152602001604051809103902060050160009054906101000a900473ffffffffffffffffffffffffffffffffffffffff1673ffffffffffffffffffffffffffffffffffffffff161461033057600080fd5b666a94d74f430000341461034357600080fd5b6060600160003373ffffffffffffffffffffffffffffffffffffffff1673ffffffffffffffffffffffffffffffffffffffff168152602001908152602001600020805480602002602001604051908101604052809291908181526020016000905b82821015610460578382906000526020600020018054600181600116156101000203166002900480601f01602080910402602001604051908101604052809291908181526020018280546001816001161561010002031660029004801561044c5780601f106104215761010080835404028352916020019161044c565b820191906000526020600020905b81548152906001019060200180831161042f57829003601f168201915b5050505050815260200190600101906103a4565b50505050905060005b81518161ffff1610156104cd578380519060200120828261ffff168151811061048e57fe5b60200260200101518051906020012014156104c057818161ffff16815181106104b357fe5b6020026020010160608152505b8080600101915050610469565b50816000846040516104df919061131b565b908152602001604051809103902060050160006101000a81548173ffffffffffffffffffffffffffffffffffffffff021916908373ffffffffffffffffffffffffffffffffffffffff160217905550600160008373ffffffffffffffffffffffffffffffffffffffff1673ffffffffffffffffffffffffffffffffffffffff168152602001908152602001600020839080600181540180825580915050600190039060005260206000200160009091909190915090805190602001906105a6929190610dc1565b50505050565b3373ffffffffffffffffffffffffffffffffffffffff166000826040516105d3919061131b565b908152602001604051809103902060050160009054906101000a900473ffffffffffffffffffffffffffffffffffffffff1673ffffffffffffffffffffffffffffffffffffffff161461062557600080fd5b66354a6ba7a18000341461063857600080fd5b600081604051610648919061131b565b9081526020016040518091039020600080820160006101000a81549060ff021916905560018201600090556002820160006106839190610ec1565b6003820160006106939190610ec1565b6004820160006106a39190610ec1565b6005820160006101000a81549073ffffffffffffffffffffffffffffffffffffffff021916905550506060600160003373ffffffffffffffffffffffffffffffffffffffff1673ffffffffffffffffffffffffffffffffffffffff168152602001908152602001600020805480602002602001604051908101604052809291908181526020016000905b828210156107e9578382906000526020600020018054600181600116156101000203166002900480601f0160208091040260200160405190810160405280929190818152602001828054600181600116156101000203166002900480156107d55780601f106107aa576101008083540402835291602001916107d5565b820191906000526020600020905b8154815290600101906020018083116107b857829003601f168201915b50505050508152602001906001019061072d565b50505050905060005b81518161ffff161015610856578280519060200120828261ffff168151811061081757fe5b602002602001015180519060200120141561084957818161ffff168151811061083c57fe5b6020026020010160608152505b80806001019150506107f2565b505050565b606080600160003373ffffffffffffffffffffffffffffffffffffffff1673ffffffffffffffffffffffffffffffffffffffff168152602001908152602001600020805480602002602001604051908101604052809291908181526020016000905b82821015610979578382906000526020600020018054600181600116156101000203166002900480601f0160208091040260200160405190810160405280929190818152602001828054600181600116156101000203166002900480156109655780601f1061093a57610100808354040283529160200191610965565b820191906000526020600020905b81548152906001019060200180831161094857829003601f168201915b5050505050815260200190600101906108bd565b5050505090506000805b82518110156109e957600083828151811061099a57fe5b60200260200101516040516109af919061131b565b908152602001604051809103902060000160009054906101000a900460ff16156109dc5781806001019250505b8080600101915050610983565b5060608161ffff1667ffffffffffffffff81118015610a0757600080fd5b50604051908082528060200260200182016040528015610a4157816020015b610a2e610d73565b815260200190600190039081610a265790505b5090506000915060005b8351811015610d69576000848281518110610a6257fe5b6020026020010151604051610a77919061131b565b908152602001604051809103902060000160009054906101000a900460ff1615610d5c576000848281518110610aa957fe5b6020026020010151604051610abe919061131b565b90815260200160405180910390206040518060c00160405290816000820160009054906101000a900460ff1615151515815260200160018201548152602001600282018054600181600116156101000203166002900480601f016020809104026020016040519081016040528092919081815260200182805460018160011615610100020316600290048015610b955780601f10610b6a57610100808354040283529160200191610b95565b820191906000526020600020905b815481529060010190602001808311610b7857829003601f168201915b50505050508152602001600382018054600181600116156101000203166002900480601f016020809104026020016040519081016040528092919081815260200182805460018160011615610100020316600290048015610c375780601f10610c0c57610100808354040283529160200191610c37565b820191906000526020600020905b815481529060010190602001808311610c1a57829003601f168201915b50505050508152602001600482018054600181600116156101000203166002900480601f016020809104026020016040519081016040528092919081815260200182805460018160011615610100020316600290048015610cd95780601f10610cae57610100808354040283529160200191610cd9565b820191906000526020600020905b815481529060010190602001808311610cbc57829003601f168201915b505050505081526020016005820160009054906101000a900473ffffffffffffffffffffffffffffffffffffffff1673ffffffffffffffffffffffffffffffffffffffff1673ffffffffffffffffffffffffffffffffffffffff1681525050828461ffff1681518110610d4857fe5b602002602001018190525082806001019350505b8080600101915050610a4b565b5080935050505090565b6040518060c0016040528060001515815260200160008152602001606081526020016060815260200160608152602001600073ffffffffffffffffffffffffffffffffffffffff1681525090565b828054600181600116156101000203166002900490600052602060002090601f016020900481019282601f10610e0257805160ff1916838001178555610e30565b82800160010185558215610e30579182015b82811115610e2f578251825591602001919060010190610e14565b5b509050610e3d9190610f09565b5090565b828054600181600116156101000203166002900490600052602060002090601f016020900481019282601f10610e8257805160ff1916838001178555610eb0565b82800160010185558215610eb0579182015b82811115610eaf578251825591602001919060010190610e94565b5b509050610ebd9190610f09565b5090565b50805460018160011615610100020316600290046000825580601f10610ee75750610f06565b601f016020900490600052602060002090810190610f059190610f09565b5b50565b5b80821115610f22576000816000905550600101610f0a565b5090565b600081359050610f35816114df565b92915050565b600082601f830112610f4c57600080fd5b8135610f5f610f5a82611381565b611354565b91508082526020830160208301858383011115610f7b57600080fd5b610f8683828461148c565b50505092915050565b600082601f830112610fa057600080fd5b8135610fb3610fae826113ad565b611354565b91508082526020830160208301858383011115610fcf57600080fd5b610fda83828461148c565b50505092915050565b600081359050610ff2816114f6565b92915050565b60006020828403121561100a57600080fd5b600082013567ffffffffffffffff81111561102457600080fd5b61103084828501610f3b565b91505092915050565b6000806040838503121561104c57600080fd5b600083013567ffffffffffffffff81111561106657600080fd5b61107285828601610f3b565b925050602061108385828601610f26565b9150509250929050565b600080600080600060a086880312156110a557600080fd5b60006110b388828901610fe3565b955050602086013567ffffffffffffffff8111156110d057600080fd5b6110dc88828901610f8f565b945050604086013567ffffffffffffffff8111156110f957600080fd5b61110588828901610f8f565b935050606086013567ffffffffffffffff81111561112257600080fd5b61112e88828901610f8f565b925050608086013567ffffffffffffffff81111561114b57600080fd5b61115788828901610f3b565b9150509295509295909350565b60006111708383611275565b905092915050565b61118181611444565b82525050565b6000611192826113e9565b61119c8185611417565b9350836020820285016111ae856113d9565b8060005b858110156111ea57848403895281516111cb8582611164565b94506111d68361140a565b925060208a019950506001810190506111b2565b50829750879550505050505092915050565b61120581611456565b82525050565b6000611216826113f4565b6112208185611428565b935061123081856020860161149b565b80840191505092915050565b6000611247826113ff565b6112518185611433565b935061126181856020860161149b565b61126a816114ce565b840191505092915050565b600060c08301600083015161128d60008601826111fc565b5060208301516112a0602086018261130c565b50604083015184820360408601526112b8828261123c565b915050606083015184820360608601526112d2828261123c565b915050608083015184820360808601526112ec828261123c565b91505060a083015161130160a0860182611178565b508091505092915050565b61131581611482565b82525050565b6000611327828461120b565b915081905092915050565b6000602082019050818103600083015261134c8184611187565b905092915050565b6000604051905081810181811067ffffffffffffffff8211171561137757600080fd5b8060405250919050565b600067ffffffffffffffff82111561139857600080fd5b601f19601f8301169050602081019050919050565b600067ffffffffffffffff8211156113c457600080fd5b601f19601f8301169050602081019050919050565b6000819050602082019050919050565b600081519050919050565b600081519050919050565b600081519050919050565b6000602082019050919050565b600082825260208201905092915050565b600081905092915050565b600082825260208201905092915050565b600061144f82611462565b9050919050565b60008115159050919050565b600073ffffffffffffffffffffffffffffffffffffffff82169050919050565b6000819050919050565b82818337600083830152505050565b60005b838110156114b957808201518184015260208101905061149e565b838111156114c8576000848401525b50505050565b6000601f19601f8301169050919050565b6114e881611444565b81146114f357600080fd5b50565b6114ff81611482565b811461150a57600080fd5b5056fea2646970667358221220141d6bd6a2d8aea41f92f4659b6726bc225878981fdf2f96f32a5ad9a60bd4e764736f6c634300060c0033",
  "immutableReferences": {},
  "source": "// SPDX-License-Identifier: MIT\npragma solidity >=0.6.0 <8.10.0;\npragma experimental ABIEncoderV2;\n\ncontract VehicleServices {\n    struct Title {\n        bool isValue;\n        uint year;\n        string make;\n        string model;\n        string color;\n        address payable owner;\n    }\n\n    mapping(bytes => Title) titles;\n    mapping(address => bytes[]) findVinsByOwner;\n\n\n    function title(\n        uint year,\n        string memory make,\n        string memory model,\n        string memory color,\n        bytes memory vin\n    ) public payable {\n        require(msg.value == 0.015 ether);\n        Title memory t;\n        t.isValue = true;\n        t.color = color;\n        t.make = make;\n        t.model = model;\n        t.year = year;\n        t.owner = payable(msg.sender);\n\n        findVinsByOwner[msg.sender].push(vin);\n        titles[vin] = t;\n    }\n\n    function getVehicles() public view returns (Title[] memory) {\n        bytes[] memory userVins = findVinsByOwner[msg.sender];\n        \n\n        uint16 numberOfVehicles = 0;\n\n        for (uint256 index = 0; index < userVins.length; index++) {\n            if (titles[userVins[index]].isValue) {\n                numberOfVehicles++;\n            }\n        }\n\n        Title[] memory userTitles = new Title[](numberOfVehicles);\n        numberOfVehicles = 0;\n        for (uint256 index = 0; index < userVins.length; index++) {\n            if (titles[userVins[index]].isValue) {\n                userTitles[numberOfVehicles] = titles[userVins[index]];\n                numberOfVehicles++;\n            }\n        }\n\n        return userTitles;\n    }\n\n\n\n    function revokeTitle(bytes memory vin) public payable {\n        require(titles[vin].owner == msg.sender);\n        require(msg.value == 0.015 ether);\n\n        delete titles[vin];\n\n        bytes[] memory currentOwnerVins = findVinsByOwner[msg.sender];\n\n        for (uint16 i = 0; i < currentOwnerVins.length; i++) {\n            if (keccak256(currentOwnerVins[i]) == keccak256(vin)) {\n                delete currentOwnerVins[i];\n            }\n        }\n    }\n\n    function sellVehicle(bytes memory vin, address payable buyer) external payable {\n        require(titles[vin].owner == msg.sender);\n        require(msg.value == 0.03 ether);\n\n        bytes[] memory currentOwnerVins = findVinsByOwner[msg.sender];\n\n        for (uint16 i = 0; i < currentOwnerVins.length; i++) {\n            if (keccak256(currentOwnerVins[i]) == keccak256(vin)) {\n                delete currentOwnerVins[i];\n            }\n        }\n\n        titles[vin].owner = buyer;\n        findVinsByOwner[buyer].push(vin);\n    }\n\n    \n}",
  "sourcePath": "/Users/seangalloway/Coding_Projects/College/9Spring_2022/764CS/project/dmv-backend/contracts/VehicleServices.sol",
  "compiler": {
    "name": "solc",
    "version": "0.6.12+commit.27d51765.Emscripten.clang"
  },
  "schemaVersion": "3.4.6",
  "updatedAt": "2022-04-25T03:15:02.765Z",
  "networkType": "ethereum",
  "devdoc": {
    "kind": "dev",
    "methods": {},
    "version": 1
  },
  "userdoc": {
    "kind": "user",
    "methods": {},
    "version": 1
  }
}